{
  "_format": "hh-sol-artifact-1",
  "contractName": "BridgeCsc",
  "sourceName": "contracts/BridgeCsc.sol",
  "abi": [
    {
      "inputs": [
        {
          "internalType": "address",
          "name": "token",
          "type": "address"
        }
      ],
      "stateMutability": "nonpayable",
      "type": "constructor"
    },
    {
      "anonymous": false,
      "inputs": [
        {
          "indexed": false,
          "internalType": "address",
          "name": "from",
          "type": "address"
        },
        {
          "indexed": false,
          "internalType": "address",
          "name": "to",
          "type": "address"
        },
        {
          "indexed": false,
          "internalType": "uint256",
          "name": "amount",
          "type": "uint256"
        },
        {
          "indexed": false,
          "internalType": "uint256",
          "name": "date",
          "type": "uint256"
        },
        {
          "indexed": false,
          "internalType": "uint256",
          "name": "nonce",
          "type": "uint256"
        },
        {
          "indexed": false,
          "internalType": "bytes",
          "name": "signature",
          "type": "bytes"
        },
        {
          "indexed": true,
          "internalType": "enum BridgeBase.Step",
          "name": "step",
          "type": "uint8"
        }
      ],
      "name": "Transfer",
      "type": "event"
    },
    {
      "inputs": [],
      "name": "admin",
      "outputs": [
        {
          "internalType": "address",
          "name": "",
          "type": "address"
        }
      ],
      "stateMutability": "view",
      "type": "function"
    },
    {
      "inputs": [
        {
          "internalType": "address",
          "name": "to",
          "type": "address"
        },
        {
          "internalType": "uint256",
          "name": "amount",
          "type": "uint256"
        },
        {
          "internalType": "uint256",
          "name": "nonce",
          "type": "uint256"
        },
        {
          "internalType": "bytes",
          "name": "signature",
          "type": "bytes"
        }
      ],
      "name": "burn",
      "outputs": [],
      "stateMutability": "nonpayable",
      "type": "function"
    },
    {
      "inputs": [
        {
          "internalType": "address",
          "name": "from",
          "type": "address"
        },
        {
          "internalType": "address",
          "name": "to",
          "type": "address"
        },
        {
          "internalType": "uint256",
          "name": "amount",
          "type": "uint256"
        },
        {
          "internalType": "uint256",
          "name": "nonce",
          "type": "uint256"
        },
        {
          "internalType": "bytes",
          "name": "signature",
          "type": "bytes"
        }
      ],
      "name": "mint",
      "outputs": [],
      "stateMutability": "nonpayable",
      "type": "function"
    },
    {
      "inputs": [
        {
          "internalType": "address",
          "name": "",
          "type": "address"
        },
        {
          "internalType": "uint256",
          "name": "",
          "type": "uint256"
        }
      ],
      "name": "processedNonces",
      "outputs": [
        {
          "internalType": "bool",
          "name": "",
          "type": "bool"
        }
      ],
      "stateMutability": "view",
      "type": "function"
    },
    {
      "inputs": [],
      "name": "token",
      "outputs": [
        {
          "internalType": "contract IToken",
          "name": "",
          "type": "address"
        }
      ],
      "stateMutability": "view",
      "type": "function"
    }
  ],
  "bytecode": "0x608060405234801561001057600080fd5b50604051620010033803806200100383398181016040528101906100349190610120565b80336000806101000a81548173ffffffffffffffffffffffffffffffffffffffff021916908373ffffffffffffffffffffffffffffffffffffffff16021790555080600160006101000a81548173ffffffffffffffffffffffffffffffffffffffff021916908373ffffffffffffffffffffffffffffffffffffffff160217905550505061014d565b600080fd5b600073ffffffffffffffffffffffffffffffffffffffff82169050919050565b60006100ed826100c2565b9050919050565b6100fd816100e2565b811461010857600080fd5b50565b60008151905061011a816100f4565b92915050565b600060208284031215610136576101356100bd565b5b60006101448482850161010b565b91505092915050565b610ea6806200015d6000396000f3fe608060405234801561001057600080fd5b50600436106100575760003560e01c8063525557021461005c5780637cc70240146100785780638a94b05f146100a8578063f851a440146100c4578063fc0c546a146100e2575b600080fd5b6100766004803603810190610071919061084d565b610100565b005b610092600480360381019061008d91906108e7565b6103ef565b60405161009f9190610942565b60405180910390f35b6100c260048036038101906100bd919061095d565b61041e565b005b6100cc610618565b6040516100d991906109f4565b60405180910390f35b6100ea61063c565b6040516100f79190610a6e565b60405180910390f35b60006101378787878760405160200161011c9493929190610af2565b60405160208183030381529060405280519060200120610662565b90508673ffffffffffffffffffffffffffffffffffffffff1661019e8285858080601f016020809104026020016040519081016040528093929190818152602001838380828437600081840152601f19601f82011690508083019250505050505050610692565b73ffffffffffffffffffffffffffffffffffffffff16146101f4576040517f08c379a00000000000000000000000000000000000000000000000000000000081526004016101eb90610b9d565b60405180910390fd5b60001515600260008973ffffffffffffffffffffffffffffffffffffffff1673ffffffffffffffffffffffffffffffffffffffff168152602001908152602001600020600086815260200190815260200160002060009054906101000a900460ff16151514610298576040517f08c379a000000000000000000000000000000000000000000000000000000000815260040161028f90610c09565b60405180910390fd5b6001600260008973ffffffffffffffffffffffffffffffffffffffff1673ffffffffffffffffffffffffffffffffffffffff168152602001908152602001600020600086815260200190815260200160002060006101000a81548160ff021916908315150217905550600160009054906101000a900473ffffffffffffffffffffffffffffffffffffffff1673ffffffffffffffffffffffffffffffffffffffff166340c10f1987876040518363ffffffff1660e01b815260040161035e929190610c38565b600060405180830381600087803b15801561037857600080fd5b505af115801561038c573d6000803e3d6000fd5b505050506001808111156103a3576103a2610c61565b5b7fce5a9b86edd3b998c3948a7934c7ecf7dba73c4c5bcf56cf576bca4aa2beeb30888888428989896040516103de9796959493929190610cee565b60405180910390a250505050505050565b60026020528160005260406000206020528060005260406000206000915091509054906101000a900460ff1681565b60001515600260003373ffffffffffffffffffffffffffffffffffffffff1673ffffffffffffffffffffffffffffffffffffffff168152602001908152602001600020600085815260200190815260200160002060009054906101000a900460ff161515146104c2576040517f08c379a00000000000000000000000000000000000000000000000000000000081526004016104b990610c09565b60405180910390fd5b6001600260003373ffffffffffffffffffffffffffffffffffffffff1673ffffffffffffffffffffffffffffffffffffffff168152602001908152602001600020600085815260200190815260200160002060006101000a81548160ff021916908315150217905550600160009054906101000a900473ffffffffffffffffffffffffffffffffffffffff1673ffffffffffffffffffffffffffffffffffffffff16639dc29fac33866040518363ffffffff1660e01b8152600401610588929190610c38565b600060405180830381600087803b1580156105a257600080fd5b505af11580156105b6573d6000803e3d6000fd5b50505050600060018111156105ce576105cd610c61565b5b7fce5a9b86edd3b998c3948a7934c7ecf7dba73c4c5bcf56cf576bca4aa2beeb30338787428888886040516106099796959493929190610cee565b60405180910390a25050505050565b60008054906101000a900473ffffffffffffffffffffffffffffffffffffffff1681565b600160009054906101000a900473ffffffffffffffffffffffffffffffffffffffff1681565b6000816040516020016106759190610dda565b604051602081830303815290604052805190602001209050919050565b6000806000806106a185610707565b809350819450829550505050600186848484604051600081526020016040526040516106d09493929190610e2b565b6020604051602081039080840390855afa1580156106f2573d6000803e3d6000fd5b50505060206040510351935050505092915050565b6000806000604184511461071a57600080fd5b60008060006020870151925060408701519150606087015160001a90508083839550955095505050509193909250565b600080fd5b600080fd5b600073ffffffffffffffffffffffffffffffffffffffff82169050919050565b600061077f82610754565b9050919050565b61078f81610774565b811461079a57600080fd5b50565b6000813590506107ac81610786565b92915050565b6000819050919050565b6107c5816107b2565b81146107d057600080fd5b50565b6000813590506107e2816107bc565b92915050565b600080fd5b600080fd5b600080fd5b60008083601f84011261080d5761080c6107e8565b5b8235905067ffffffffffffffff81111561082a576108296107ed565b5b602083019150836001820283011115610846576108456107f2565b5b9250929050565b60008060008060008060a0878903121561086a5761086961074a565b5b600061087889828a0161079d565b965050602061088989828a0161079d565b955050604061089a89828a016107d3565b94505060606108ab89828a016107d3565b935050608087013567ffffffffffffffff8111156108cc576108cb61074f565b5b6108d889828a016107f7565b92509250509295509295509295565b600080604083850312156108fe576108fd61074a565b5b600061090c8582860161079d565b925050602061091d858286016107d3565b9150509250929050565b60008115159050919050565b61093c81610927565b82525050565b60006020820190506109576000830184610933565b92915050565b6000806000806000608086880312156109795761097861074a565b5b60006109878882890161079d565b9550506020610998888289016107d3565b94505060406109a9888289016107d3565b935050606086013567ffffffffffffffff8111156109ca576109c961074f565b5b6109d6888289016107f7565b92509250509295509295909350565b6109ee81610774565b82525050565b6000602082019050610a0960008301846109e5565b92915050565b6000819050919050565b6000610a34610a2f610a2a84610754565b610a0f565b610754565b9050919050565b6000610a4682610a19565b9050919050565b6000610a5882610a3b565b9050919050565b610a6881610a4d565b82525050565b6000602082019050610a836000830184610a5f565b92915050565b60008160601b9050919050565b6000610aa182610a89565b9050919050565b6000610ab382610a96565b9050919050565b610acb610ac682610774565b610aa8565b82525050565b6000819050919050565b610aec610ae7826107b2565b610ad1565b82525050565b6000610afe8287610aba565b601482019150610b0e8286610aba565b601482019150610b1e8285610adb565b602082019150610b2e8284610adb565b60208201915081905095945050505050565b600082825260208201905092915050565b7f77726f6e67207369676e61747572650000000000000000000000000000000000600082015250565b6000610b87600f83610b40565b9150610b9282610b51565b602082019050919050565b60006020820190508181036000830152610bb681610b7a565b9050919050565b7f7472616e7366657220616c72656164792070726f636573736564000000000000600082015250565b6000610bf3601a83610b40565b9150610bfe82610bbd565b602082019050919050565b60006020820190508181036000830152610c2281610be6565b9050919050565b610c32816107b2565b82525050565b6000604082019050610c4d60008301856109e5565b610c5a6020830184610c29565b9392505050565b7f4e487b7100000000000000000000000000000000000000000000000000000000600052602160045260246000fd5b600082825260208201905092915050565b82818337600083830152505050565b6000601f19601f8301169050919050565b6000610ccd8385610c90565b9350610cda838584610ca1565b610ce383610cb0565b840190509392505050565b600060c082019050610d03600083018a6109e5565b610d1060208301896109e5565b610d1d6040830188610c29565b610d2a6060830187610c29565b610d376080830186610c29565b81810360a0830152610d4a818486610cc1565b905098975050505050505050565b600081905092915050565b7f19457468657265756d205369676e6564204d6573736167653a0a333200000000600082015250565b6000610d99601c83610d58565b9150610da482610d63565b601c82019050919050565b6000819050919050565b6000819050919050565b610dd4610dcf82610daf565b610db9565b82525050565b6000610de582610d8c565b9150610df18284610dc3565b60208201915081905092915050565b610e0981610daf565b82525050565b600060ff82169050919050565b610e2581610e0f565b82525050565b6000608082019050610e406000830187610e00565b610e4d6020830186610e1c565b610e5a6040830185610e00565b610e676060830184610e00565b9594505050505056fea2646970667358221220f9dc55e7b29f02da49e453016df5364a376587b60e97784a0515a0f6f08da53664736f6c63430008180033",
  "linkReferences": {},
  "deployedLinkReferences": {}
}